{
  "_format": "hh-sol-artifact-1",
  "contractName": "PolicyEvaluator",
  "sourceName": "contracts/PolicyEvaluator.sol",
  "abi": [
    {
      "inputs": [
        {
          "internalType": "string",
          "name": "_policyId",
          "type": "string"
        }
      ],
      "stateMutability": "nonpayable",
      "type": "constructor"
    },
    {
      "inputs": [],
      "name": "admin",
      "outputs": [
        {
          "internalType": "address",
          "name": "",
          "type": "address"
        }
      ],
      "stateMutability": "view",
      "type": "function"
    },
    {
      "inputs": [
        {
          "internalType": "address",
          "name": "user",
          "type": "address"
        },
        {
          "internalType": "uint256",
          "name": "amount",
          "type": "uint256"
        }
      ],
      "name": "depositStablecoin",
      "outputs": [],
      "stateMutability": "nonpayable",
      "type": "function"
    },
    {
      "inputs": [
        {
          "internalType": "address",
          "name": "user",
          "type": "address"
        },
        {
          "internalType": "uint256",
          "name": "weightInKg",
          "type": "uint256"
        }
      ],
      "name": "evaluate",
      "outputs": [
        {
          "internalType": "bool",
          "name": "allowed",
          "type": "bool"
        },
        {
          "internalType": "string",
          "name": "reason",
          "type": "string"
        }
      ],
      "stateMutability": "view",
      "type": "function"
    },
    {
      "inputs": [],
      "name": "policyId",
      "outputs": [
        {
          "internalType": "string",
          "name": "",
          "type": "string"
        }
      ],
      "stateMutability": "view",
      "type": "function"
    },
    {
      "inputs": [
        {
          "internalType": "string",
          "name": "_policyId",
          "type": "string"
        }
      ],
      "name": "setPolicyId",
      "outputs": [],
      "stateMutability": "nonpayable",
      "type": "function"
    },
    {
      "inputs": [
        {
          "internalType": "address",
          "name": "driver",
          "type": "address"
        },
        {
          "internalType": "bool",
          "name": "isVerified",
          "type": "bool"
        }
      ],
      "name": "setVerifiedDriver",
      "outputs": [],
      "stateMutability": "nonpayable",
      "type": "function"
    },
    {
      "inputs": [
        {
          "internalType": "address",
          "name": "",
          "type": "address"
        }
      ],
      "name": "stablecoinDeposits",
      "outputs": [
        {
          "internalType": "uint256",
          "name": "",
          "type": "uint256"
        }
      ],
      "stateMutability": "view",
      "type": "function"
    },
    {
      "inputs": [
        {
          "internalType": "address",
          "name": "",
          "type": "address"
        }
      ],
      "name": "verifiedDrivers",
      "outputs": [
        {
          "internalType": "bool",
          "name": "",
          "type": "bool"
        }
      ],
      "stateMutability": "view",
      "type": "function"
    }
  ],
  "bytecode": "0x60806040523480156200001157600080fd5b50604051620014c4380380620014c4833981810160405281019062000037919062000223565b336000806101000a81548173ffffffffffffffffffffffffffffffffffffffff021916908373ffffffffffffffffffffffffffffffffffffffff1602179055508060019081620000889190620004bf565b5050620005a6565b6000604051905090565b600080fd5b600080fd5b600080fd5b600080fd5b6000601f19601f8301169050919050565b7f4e487b7100000000000000000000000000000000000000000000000000000000600052604160045260246000fd5b620000f982620000ae565b810181811067ffffffffffffffff821117156200011b576200011a620000bf565b5b80604052505050565b60006200013062000090565b90506200013e8282620000ee565b919050565b600067ffffffffffffffff821115620001615762000160620000bf565b5b6200016c82620000ae565b9050602081019050919050565b60005b83811015620001995780820151818401526020810190506200017c565b60008484015250505050565b6000620001bc620001b68462000143565b62000124565b905082815260208101848484011115620001db57620001da620000a9565b5b620001e884828562000179565b509392505050565b600082601f830112620002085762000207620000a4565b5b81516200021a848260208601620001a5565b91505092915050565b6000602082840312156200023c576200023b6200009a565b5b600082015167ffffffffffffffff8111156200025d576200025c6200009f565b5b6200026b84828501620001f0565b91505092915050565b600081519050919050565b7f4e487b7100000000000000000000000000000000000000000000000000000000600052602260045260246000fd5b60006002820490506001821680620002c757607f821691505b602082108103620002dd57620002dc6200027f565b5b50919050565b60008190508160005260206000209050919050565b60006020601f8301049050919050565b600082821b905092915050565b600060088302620003477fffffffffffffffffffffffffffffffffffffffffffffffffffffffffffffffff8262000308565b62000353868362000308565b95508019841693508086168417925050509392505050565b6000819050919050565b6000819050919050565b6000620003a06200039a62000394846200036b565b62000375565b6200036b565b9050919050565b6000819050919050565b620003bc836200037f565b620003d4620003cb82620003a7565b84845462000315565b825550505050565b600090565b620003eb620003dc565b620003f8818484620003b1565b505050565b5b81811015620004205762000414600082620003e1565b600181019050620003fe565b5050565b601f8211156200046f576200043981620002e3565b6200044484620002f8565b8101602085101562000454578190505b6200046c6200046385620002f8565b830182620003fd565b50505b505050565b600082821c905092915050565b6000620004946000198460080262000474565b1980831691505092915050565b6000620004af838362000481565b9150826002028217905092915050565b620004ca8262000274565b67ffffffffffffffff811115620004e657620004e5620000bf565b5b620004f28254620002ae565b620004ff82828562000424565b600060209050601f83116001811462000537576000841562000522578287015190505b6200052e8582620004a1565b8655506200059e565b601f1984166200054786620002e3565b60005b8281101562000571578489015182556001820191506020850194506020810190506200054a565b868310156200059157848901516200058d601f89168262000481565b8355505b6001600288020188555050505b505050505050565b610f0e80620005b66000396000f3fe608060405234801561001057600080fd5b50600436106100885760003560e01c8063ee89ef3a1161005b578063ee89ef3a14610126578063f063a8d214610144578063f347861714610160578063f851a4401461019057610088565b80637948c8501461008d57806391f804bc146100be578063a587f4f3146100ee578063e5feb47e1461010a575b600080fd5b6100a760048036038101906100a29190610768565b6101ae565b6040516100b5929190610853565b60405180910390f35b6100d860048036038101906100d39190610883565b610364565b6040516100e591906108bf565b60405180910390f35b61010860048036038101906101039190610768565b61037c565b005b610124600480360381019061011f9190610906565b610464565b005b61012e61054d565b60405161013b9190610946565b60405180910390f35b61015e60048036038101906101599190610a9d565b6105db565b005b61017a60048036038101906101759190610883565b61067c565b6040516101879190610ae6565b60405180910390f35b61019861069c565b6040516101a59190610b10565b60405180910390f35b60006060600260008573ffffffffffffffffffffffffffffffffffffffff1673ffffffffffffffffffffffffffffffffffffffff16815260200190815260200160002060009054906101000a900460ff166102445760006040518060400160405280601381526020017f447269766572206e6f74207665726966696564000000000000000000000000008152509150915061035d565b6103e883111561028f5760006040518060400160405280601881526020017f436172676f2065786365656473206d61782077656967687400000000000000008152509150915061035d565b68056bc75e2d63100000600360008673ffffffffffffffffffffffffffffffffffffffff1673ffffffffffffffffffffffffffffffffffffffff1681526020019081526020016000205410156103205760006040518060400160405280601f81526020017f496e73756666696369656e7420737461626c65636f696e206465706f736974008152509150915061035d565b60016040518060400160405280600e81526020017f416363657373206772616e746564000000000000000000000000000000000000815250915091505b9250929050565b60036020528060005260406000206000915090505481565b60008054906101000a900473ffffffffffffffffffffffffffffffffffffffff1673ffffffffffffffffffffffffffffffffffffffff163373ffffffffffffffffffffffffffffffffffffffff161461040a576040517f08c379a000000000000000000000000000000000000000000000000000000000815260040161040190610b77565b60405180910390fd5b80600360008473ffffffffffffffffffffffffffffffffffffffff1673ffffffffffffffffffffffffffffffffffffffff16815260200190815260200160002060008282546104599190610bc6565b925050819055505050565b60008054906101000a900473ffffffffffffffffffffffffffffffffffffffff1673ffffffffffffffffffffffffffffffffffffffff163373ffffffffffffffffffffffffffffffffffffffff16146104f2576040517f08c379a00000000000000000000000000000000000000000000000000000000081526004016104e990610b77565b60405180910390fd5b80600260008473ffffffffffffffffffffffffffffffffffffffff1673ffffffffffffffffffffffffffffffffffffffff16815260200190815260200160002060006101000a81548160ff0219169083151502179055505050565b6001805461055a90610c29565b80601f016020809104026020016040519081016040528092919081815260200182805461058690610c29565b80156105d35780601f106105a8576101008083540402835291602001916105d3565b820191906000526020600020905b8154815290600101906020018083116105b657829003601f168201915b505050505081565b60008054906101000a900473ffffffffffffffffffffffffffffffffffffffff1673ffffffffffffffffffffffffffffffffffffffff163373ffffffffffffffffffffffffffffffffffffffff1614610669576040517f08c379a000000000000000000000000000000000000000000000000000000000815260040161066090610b77565b60405180910390fd5b80600190816106789190610e06565b5050565b60026020528060005260406000206000915054906101000a900460ff1681565b60008054906101000a900473ffffffffffffffffffffffffffffffffffffffff1681565b6000604051905090565b600080fd5b600080fd5b600073ffffffffffffffffffffffffffffffffffffffff82169050919050565b60006106ff826106d4565b9050919050565b61070f816106f4565b811461071a57600080fd5b50565b60008135905061072c81610706565b92915050565b6000819050919050565b61074581610732565b811461075057600080fd5b50565b6000813590506107628161073c565b92915050565b6000806040838503121561077f5761077e6106ca565b5b600061078d8582860161071d565b925050602061079e85828601610753565b9150509250929050565b60008115159050919050565b6107bd816107a8565b82525050565b600081519050919050565b600082825260208201905092915050565b60005b838110156107fd5780820151818401526020810190506107e2565b60008484015250505050565b6000601f19601f8301169050919050565b6000610825826107c3565b61082f81856107ce565b935061083f8185602086016107df565b61084881610809565b840191505092915050565b600060408201905061086860008301856107b4565b818103602083015261087a818461081a565b90509392505050565b600060208284031215610899576108986106ca565b5b60006108a78482850161071d565b91505092915050565b6108b981610732565b82525050565b60006020820190506108d460008301846108b0565b92915050565b6108e3816107a8565b81146108ee57600080fd5b50565b600081359050610900816108da565b92915050565b6000806040838503121561091d5761091c6106ca565b5b600061092b8582860161071d565b925050602061093c858286016108f1565b9150509250929050565b60006020820190508181036000830152610960818461081a565b905092915050565b600080fd5b600080fd5b7f4e487b7100000000000000000000000000000000000000000000000000000000600052604160045260246000fd5b6109aa82610809565b810181811067ffffffffffffffff821117156109c9576109c8610972565b5b80604052505050565b60006109dc6106c0565b90506109e882826109a1565b919050565b600067ffffffffffffffff821115610a0857610a07610972565b5b610a1182610809565b9050602081019050919050565b82818337600083830152505050565b6000610a40610a3b846109ed565b6109d2565b905082815260208101848484011115610a5c57610a5b61096d565b5b610a67848285610a1e565b509392505050565b600082601f830112610a8457610a83610968565b5b8135610a94848260208601610a2d565b91505092915050565b600060208284031215610ab357610ab26106ca565b5b600082013567ffffffffffffffff811115610ad157610ad06106cf565b5b610add84828501610a6f565b91505092915050565b6000602082019050610afb60008301846107b4565b92915050565b610b0a816106f4565b82525050565b6000602082019050610b256000830184610b01565b92915050565b7f4e6f7420617574686f72697a6564000000000000000000000000000000000000600082015250565b6000610b61600e836107ce565b9150610b6c82610b2b565b602082019050919050565b60006020820190508181036000830152610b9081610b54565b9050919050565b7f4e487b7100000000000000000000000000000000000000000000000000000000600052601160045260246000fd5b6000610bd182610732565b9150610bdc83610732565b9250828201905080821115610bf457610bf3610b97565b5b92915050565b7f4e487b7100000000000000000000000000000000000000000000000000000000600052602260045260246000fd5b60006002820490506001821680610c4157607f821691505b602082108103610c5457610c53610bfa565b5b50919050565b60008190508160005260206000209050919050565b60006020601f8301049050919050565b600082821b905092915050565b600060088302610cbc7fffffffffffffffffffffffffffffffffffffffffffffffffffffffffffffffff82610c7f565b610cc68683610c7f565b95508019841693508086168417925050509392505050565b6000819050919050565b6000610d03610cfe610cf984610732565b610cde565b610732565b9050919050565b6000819050919050565b610d1d83610ce8565b610d31610d2982610d0a565b848454610c8c565b825550505050565b600090565b610d46610d39565b610d51818484610d14565b505050565b5b81811015610d7557610d6a600082610d3e565b600181019050610d57565b5050565b601f821115610dba57610d8b81610c5a565b610d9484610c6f565b81016020851015610da3578190505b610db7610daf85610c6f565b830182610d56565b50505b505050565b600082821c905092915050565b6000610ddd60001984600802610dbf565b1980831691505092915050565b6000610df68383610dcc565b9150826002028217905092915050565b610e0f826107c3565b67ffffffffffffffff811115610e2857610e27610972565b5b610e328254610c29565b610e3d828285610d79565b600060209050601f831160018114610e705760008415610e5e578287015190505b610e688582610dea565b865550610ed0565b601f198416610e7e86610c5a565b60005b82811015610ea657848901518255600182019150602085019450602081019050610e81565b86831015610ec35784890151610ebf601f891682610dcc565b8355505b6001600288020188555050505b50505050505056fea264697066735822122022a6b6f938436ddcd6b205f07c210fa2d1a0305b23f197a937274f7db09f337a64736f6c63430008140033",
  "linkReferences": {},
  "deployedLinkReferences": {}
}