{
  "_format": "hh-sol-artifact-1",
  "contractName": "SecureChain",
  "sourceName": "contracts/SecureChain.sol",
  "abi": [
    {
      "inputs": [
        {
          "internalType": "address",
          "name": "_evaluatorAddress",
          "type": "address"
        }
      ],
      "stateMutability": "nonpayable",
      "type": "constructor"
    },
    {
      "inputs": [
        {
          "internalType": "address",
          "name": "user",
          "type": "address"
        },
        {
          "internalType": "uint8",
          "name": "roleId",
          "type": "uint8"
        }
      ],
      "name": "assignRole",
      "outputs": [],
      "stateMutability": "nonpayable",
      "type": "function"
    },
    {
      "inputs": [
        {
          "internalType": "bytes32",
          "name": "",
          "type": "bytes32"
        },
        {
          "internalType": "uint256",
          "name": "",
          "type": "uint256"
        }
      ],
      "name": "cargoEvents",
      "outputs": [
        {
          "internalType": "string",
          "name": "description",
          "type": "string"
        },
        {
          "internalType": "address",
          "name": "recordedBy",
          "type": "address"
        },
        {
          "internalType": "uint256",
          "name": "timestamp",
          "type": "uint256"
        }
      ],
      "stateMutability": "view",
      "type": "function"
    },
    {
      "inputs": [
        {
          "internalType": "bytes32",
          "name": "",
          "type": "bytes32"
        }
      ],
      "name": "cargos",
      "outputs": [
        {
          "internalType": "string",
          "name": "id",
          "type": "string"
        },
        {
          "internalType": "uint256",
          "name": "weight",
          "type": "uint256"
        },
        {
          "internalType": "address",
          "name": "registeredBy",
          "type": "address"
        },
        {
          "internalType": "enum SecureChain.StatusCode",
          "name": "status",
          "type": "uint8"
        }
      ],
      "stateMutability": "view",
      "type": "function"
    },
    {
      "inputs": [
        {
          "internalType": "string",
          "name": "cargoId",
          "type": "string"
        }
      ],
      "name": "getCargo",
      "outputs": [
        {
          "internalType": "string",
          "name": "",
          "type": "string"
        },
        {
          "internalType": "uint256",
          "name": "",
          "type": "uint256"
        },
        {
          "internalType": "address",
          "name": "",
          "type": "address"
        },
        {
          "internalType": "enum SecureChain.StatusCode",
          "name": "",
          "type": "uint8"
        }
      ],
      "stateMutability": "view",
      "type": "function"
    },
    {
      "inputs": [
        {
          "internalType": "string",
          "name": "cargoId",
          "type": "string"
        }
      ],
      "name": "getCargoHistory",
      "outputs": [
        {
          "components": [
            {
              "internalType": "string",
              "name": "description",
              "type": "string"
            },
            {
              "internalType": "address",
              "name": "recordedBy",
              "type": "address"
            },
            {
              "internalType": "uint256",
              "name": "timestamp",
              "type": "uint256"
            }
          ],
          "internalType": "struct SecureChain.CargoEvent[]",
          "name": "",
          "type": "tuple[]"
        }
      ],
      "stateMutability": "view",
      "type": "function"
    },
    {
      "inputs": [
        {
          "internalType": "string",
          "name": "cargoId",
          "type": "string"
        }
      ],
      "name": "lockCargo",
      "outputs": [],
      "stateMutability": "nonpayable",
      "type": "function"
    },
    {
      "inputs": [],
      "name": "owner",
      "outputs": [
        {
          "internalType": "address",
          "name": "",
          "type": "address"
        }
      ],
      "stateMutability": "view",
      "type": "function"
    },
    {
      "inputs": [],
      "name": "policyEvaluator",
      "outputs": [
        {
          "internalType": "contract IPolicyEvaluator",
          "name": "",
          "type": "address"
        }
      ],
      "stateMutability": "view",
      "type": "function"
    },
    {
      "inputs": [
        {
          "internalType": "string",
          "name": "cargoId",
          "type": "string"
        },
        {
          "internalType": "uint256",
          "name": "weight",
          "type": "uint256"
        }
      ],
      "name": "registerCargo",
      "outputs": [],
      "stateMutability": "nonpayable",
      "type": "function"
    },
    {
      "inputs": [
        {
          "internalType": "address",
          "name": "user",
          "type": "address"
        }
      ],
      "name": "revokeRole",
      "outputs": [],
      "stateMutability": "nonpayable",
      "type": "function"
    },
    {
      "inputs": [
        {
          "internalType": "address",
          "name": "",
          "type": "address"
        }
      ],
      "name": "roles",
      "outputs": [
        {
          "internalType": "enum SecureChain.Role",
          "name": "",
          "type": "uint8"
        }
      ],
      "stateMutability": "view",
      "type": "function"
    },
    {
      "inputs": [
        {
          "internalType": "string",
          "name": "cargoId",
          "type": "string"
        },
        {
          "internalType": "uint8",
          "name": "statusCode",
          "type": "uint8"
        }
      ],
      "name": "updateCargoStatus",
      "outputs": [],
      "stateMutability": "nonpayable",
      "type": "function"
    }
  ],
  "bytecode": "0x60806040523480156200001157600080fd5b506040516200265038038062002650833981810160405281019062000037919062000129565b336000806101000a81548173ffffffffffffffffffffffffffffffffffffffff021916908373ffffffffffffffffffffffffffffffffffffffff16021790555080600160006101000a81548173ffffffffffffffffffffffffffffffffffffffff021916908373ffffffffffffffffffffffffffffffffffffffff160217905550506200015b565b600080fd5b600073ffffffffffffffffffffffffffffffffffffffff82169050919050565b6000620000f182620000c4565b9050919050565b6200010381620000e4565b81146200010f57600080fd5b50565b6000815190506200012381620000f8565b92915050565b600060208284031215620001425762000141620000bf565b5b6000620001528482850162000112565b91505092915050565b6124e5806200016b6000396000f3fe608060405234801561001057600080fd5b50600436106100b45760003560e01c80638da5cb5b116100715780638da5cb5b1461019157806391ec004a146101af57806399374642146101cb5780639f18c21b146101fb578063d0d363a51461022b578063d6b7fe881461025d576100b4565b8063040ef48d146100b9578063330da128146100ec57806348b38f9d1461010a578063630a195b146101265780636e668c171461014257806380e52e3f14610175575b600080fd5b6100d360048036038101906100ce9190611525565b610279565b6040516100e394939291906116b3565b60405180910390f35b6100f461035e565b604051610101919061175e565b60405180910390f35b610124600480360381019061011f91906118e7565b610384565b005b610140600480360381019061013b919061196f565b6108ba565b005b61015c600480360381019061015791906119af565b610a23565b60405161016c94939291906116b3565b60405180910390f35b61018f600480360381019061018a91906119f8565b610bc8565b005b610199610cc1565b6040516101a69190611a25565b60405180910390f35b6101c960048036038101906101c491906119af565b610ce5565b005b6101e560048036038101906101e091906119f8565b610e0f565b6040516101f29190611a88565b60405180910390f35b610215600480360381019061021091906119af565b610e2f565b6040516102229190611c1d565b60405180910390f35b61024560048036038101906102409190611c6b565b610fbf565b60405161025493929190611cab565b60405180910390f35b61027760048036038101906102729190611ce9565b6110ae565b005b600360205280600052604060002060009150905080600001805461029c90611d74565b80601f01602080910402602001604051908101604052809291908181526020018280546102c890611d74565b80156103155780601f106102ea57610100808354040283529160200191610315565b820191906000526020600020905b8154815290600101906020018083116102f857829003601f168201915b5050505050908060010154908060020160009054906101000a900473ffffffffffffffffffffffffffffffffffffffff16908060020160149054906101000a900460ff16905084565b600160009054906101000a900473ffffffffffffffffffffffffffffffffffffffff1681565b6003808111156103975761039661163c565b5b60ff168160ff1611156103df576040517f08c379a00000000000000000000000000000000000000000000000000000000081526004016103d690611df1565b60405180910390fd5b6000826040516020016103f29190611e4d565b6040516020818303038152906040528051906020012090506000600360008381526020019081526020016000209050600081600001805461043290611d74565b905011610474576040517f08c379a000000000000000000000000000000000000000000000000000000000815260040161046b90611eb0565b60405180910390fd5b6003808111156104875761048661163c565b5b60ff168360ff16036105a0576002808111156104a6576104a561163c565b5b600260003373ffffffffffffffffffffffffffffffffffffffff1673ffffffffffffffffffffffffffffffffffffffff16815260200190815260200160002060009054906101000a900460ff1660028111156105055761050461163c565b5b148061055c575060008054906101000a900473ffffffffffffffffffffffffffffffffffffffff1673ffffffffffffffffffffffffffffffffffffffff163373ffffffffffffffffffffffffffffffffffffffff16145b61059b576040517f08c379a000000000000000000000000000000000000000000000000000000000815260040161059290611f1c565b60405180910390fd5b6106aa565b600160028111156105b4576105b361163c565b5b600260003373ffffffffffffffffffffffffffffffffffffffff1673ffffffffffffffffffffffffffffffffffffffff16815260200190815260200160002060009054906101000a900460ff1660028111156106135761061261163c565b5b148061066a575060008054906101000a900473ffffffffffffffffffffffffffffffffffffffff1673ffffffffffffffffffffffffffffffffffffffff163373ffffffffffffffffffffffffffffffffffffffff16145b6106a9576040517f08c379a00000000000000000000000000000000000000000000000000000000081526004016106a090611f88565b60405180910390fd5b5b8260ff1660038111156106c0576106bf61163c565b5b8160020160146101000a81548160ff021916908360038111156106e6576106e561163c565b5b02179055506000600260038111156107015761070061163c565b5b60ff168460ff16146107a457600160038111156107215761072061163c565b5b60ff168460ff1614610768576040518060400160405280600c81526020017f436172676f204c6f636b6564000000000000000000000000000000000000000081525061079f565b6040518060400160405280601081526020017f436172676f20496e205472616e736974000000000000000000000000000000008152505b6107db565b6040518060400160405280600f81526020017f436172676f2044656c69766572656400000000000000000000000000000000008152505b90506004600084815260200190815260200160002060405180606001604052808381526020013373ffffffffffffffffffffffffffffffffffffffff168152602001428152509080600181540180825580915050600190039060005260206000209060030201600090919091909150600082015181600001908161085f919061214a565b5060208201518160010160006101000a81548173ffffffffffffffffffffffffffffffffffffffff021916908373ffffffffffffffffffffffffffffffffffffffff1602179055506040820151816002015550505050505050565b60008054906101000a900473ffffffffffffffffffffffffffffffffffffffff1673ffffffffffffffffffffffffffffffffffffffff163373ffffffffffffffffffffffffffffffffffffffff1614610948576040517f08c379a000000000000000000000000000000000000000000000000000000000815260040161093f90612268565b60405180910390fd5b60028081111561095b5761095a61163c565b5b60ff168160ff1611156109a3576040517f08c379a000000000000000000000000000000000000000000000000000000000815260040161099a906122d4565b60405180910390fd5b8060ff1660028111156109b9576109b861163c565b5b600260008473ffffffffffffffffffffffffffffffffffffffff1673ffffffffffffffffffffffffffffffffffffffff16815260200190815260200160002060006101000a81548160ff02191690836002811115610a1a57610a1961163c565b5b02179055505050565b606060008060008085604051602001610a3c9190611e4d565b604051602081830303815290604052805190602001209050600060036000838152602001908152602001600020604051806080016040529081600082018054610a8490611d74565b80601f0160208091040260200160405190810160405280929190818152602001828054610ab090611d74565b8015610afd5780601f10610ad257610100808354040283529160200191610afd565b820191906000526020600020905b815481529060010190602001808311610ae057829003601f168201915b50505050508152602001600182015481526020016002820160009054906101000a900473ffffffffffffffffffffffffffffffffffffffff1673ffffffffffffffffffffffffffffffffffffffff1673ffffffffffffffffffffffffffffffffffffffff1681526020016002820160149054906101000a900460ff166003811115610b8b57610b8a61163c565b5b6003811115610b9d57610b9c61163c565b5b8152505090508060000151816020015182604001518360600151955095509550955050509193509193565b60008054906101000a900473ffffffffffffffffffffffffffffffffffffffff1673ffffffffffffffffffffffffffffffffffffffff163373ffffffffffffffffffffffffffffffffffffffff1614610c56576040517f08c379a0000000000000000000000000000000000000000000000000000000008152600401610c4d90612268565b60405180910390fd5b6000600260008373ffffffffffffffffffffffffffffffffffffffff1673ffffffffffffffffffffffffffffffffffffffff16815260200190815260200160002060006101000a81548160ff02191690836002811115610cb957610cb861163c565b5b021790555050565b60008054906101000a900473ffffffffffffffffffffffffffffffffffffffff1681565b6002806002811115610cfa57610cf961163c565b5b600260003373ffffffffffffffffffffffffffffffffffffffff1673ffffffffffffffffffffffffffffffffffffffff16815260200190815260200160002060009054906101000a900460ff166002811115610d5957610d5861163c565b5b1480610db0575060008054906101000a900473ffffffffffffffffffffffffffffffffffffffff1673ffffffffffffffffffffffffffffffffffffffff163373ffffffffffffffffffffffffffffffffffffffff16145b610def576040517f08c379a0000000000000000000000000000000000000000000000000000000008152600401610de690612340565b60405180910390fd5b610e0b82600380811115610e0657610e0561163c565b5b610384565b5050565b60026020528060005260406000206000915054906101000a900460ff1681565b6060600082604051602001610e449190611e4d565b60405160208183030381529060405280519060200120905060046000828152602001908152602001600020805480602002602001604051908101604052809291908181526020016000905b82821015610fb35783829060005260206000209060030201604051806060016040529081600082018054610ec290611d74565b80601f0160208091040260200160405190810160405280929190818152602001828054610eee90611d74565b8015610f3b5780601f10610f1057610100808354040283529160200191610f3b565b820191906000526020600020905b815481529060010190602001808311610f1e57829003601f168201915b505050505081526020016001820160009054906101000a900473ffffffffffffffffffffffffffffffffffffffff1673ffffffffffffffffffffffffffffffffffffffff1673ffffffffffffffffffffffffffffffffffffffff16815260200160028201548152505081526020019060010190610e8f565b50505050915050919050565b60046020528160005260406000208181548110610fdb57600080fd5b906000526020600020906003020160009150915050806000018054610fff90611d74565b80601f016020809104026020016040519081016040528092919081815260200182805461102b90611d74565b80156110785780601f1061104d57610100808354040283529160200191611078565b820191906000526020600020905b81548152906001019060200180831161105b57829003601f168201915b5050505050908060010160009054906101000a900473ffffffffffffffffffffffffffffffffffffffff16908060020154905083565b60018060028111156110c3576110c261163c565b5b600260003373ffffffffffffffffffffffffffffffffffffffff1673ffffffffffffffffffffffffffffffffffffffff16815260200190815260200160002060009054906101000a900460ff1660028111156111225761112161163c565b5b1480611179575060008054906101000a900473ffffffffffffffffffffffffffffffffffffffff1673ffffffffffffffffffffffffffffffffffffffff163373ffffffffffffffffffffffffffffffffffffffff16145b6111b8576040517f08c379a00000000000000000000000000000000000000000000000000000000081526004016111af90612340565b60405180910390fd5b600080600160009054906101000a900473ffffffffffffffffffffffffffffffffffffffff1673ffffffffffffffffffffffffffffffffffffffff16637948c85033866040518363ffffffff1660e01b8152600401611218929190612360565b600060405180830381865afa158015611235573d6000803e3d6000fd5b505050506040513d6000823e3d601f19601f8201168201806040525081019061125e9190612431565b915091508181906112a5576040517f08c379a000000000000000000000000000000000000000000000000000000000815260040161129c919061248d565b60405180910390fd5b506000856040516020016112b99190611e4d565b60405160208183030381529060405280519060200120905060405180608001604052808781526020018681526020013373ffffffffffffffffffffffffffffffffffffffff168152602001600160038111156113185761131761163c565b5b815250600360008381526020019081526020016000206000820151816000019081611343919061214a565b506020820151816001015560408201518160020160006101000a81548173ffffffffffffffffffffffffffffffffffffffff021916908373ffffffffffffffffffffffffffffffffffffffff16021790555060608201518160020160146101000a81548160ff021916908360038111156113c0576113bf61163c565b5b02179055509050506004600082815260200190815260200160002060405180606001604052806040518060400160405280601081526020017f436172676f20526567697374657265640000000000000000000000000000000081525081526020013373ffffffffffffffffffffffffffffffffffffffff168152602001428152509080600181540180825580915050600190039060005260206000209060030201600090919091909150600082015181600001908161147f919061214a565b5060208201518160010160006101000a81548173ffffffffffffffffffffffffffffffffffffffff021916908373ffffffffffffffffffffffffffffffffffffffff160217905550604082015181600201555050505050505050565b6000604051905090565b600080fd5b600080fd5b6000819050919050565b611502816114ef565b811461150d57600080fd5b50565b60008135905061151f816114f9565b92915050565b60006020828403121561153b5761153a6114e5565b5b600061154984828501611510565b91505092915050565b600081519050919050565b600082825260208201905092915050565b60005b8381101561158c578082015181840152602081019050611571565b60008484015250505050565b6000601f19601f8301169050919050565b60006115b482611552565b6115be818561155d565b93506115ce81856020860161156e565b6115d781611598565b840191505092915050565b6000819050919050565b6115f5816115e2565b82525050565b600073ffffffffffffffffffffffffffffffffffffffff82169050919050565b6000611626826115fb565b9050919050565b6116368161161b565b82525050565b7f4e487b7100000000000000000000000000000000000000000000000000000000600052602160045260246000fd5b6004811061167c5761167b61163c565b5b50565b600081905061168d8261166b565b919050565b600061169d8261167f565b9050919050565b6116ad81611692565b82525050565b600060808201905081810360008301526116cd81876115a9565b90506116dc60208301866115ec565b6116e9604083018561162d565b6116f660608301846116a4565b95945050505050565b6000819050919050565b600061172461171f61171a846115fb565b6116ff565b6115fb565b9050919050565b600061173682611709565b9050919050565b60006117488261172b565b9050919050565b6117588161173d565b82525050565b6000602082019050611773600083018461174f565b92915050565b600080fd5b600080fd5b7f4e487b7100000000000000000000000000000000000000000000000000000000600052604160045260246000fd5b6117bb82611598565b810181811067ffffffffffffffff821117156117da576117d9611783565b5b80604052505050565b60006117ed6114db565b90506117f982826117b2565b919050565b600067ffffffffffffffff82111561181957611818611783565b5b61182282611598565b9050602081019050919050565b82818337600083830152505050565b600061185161184c846117fe565b6117e3565b90508281526020810184848401111561186d5761186c61177e565b5b61187884828561182f565b509392505050565b600082601f83011261189557611894611779565b5b81356118a584826020860161183e565b91505092915050565b600060ff82169050919050565b6118c4816118ae565b81146118cf57600080fd5b50565b6000813590506118e1816118bb565b92915050565b600080604083850312156118fe576118fd6114e5565b5b600083013567ffffffffffffffff81111561191c5761191b6114ea565b5b61192885828601611880565b9250506020611939858286016118d2565b9150509250929050565b61194c8161161b565b811461195757600080fd5b50565b60008135905061196981611943565b92915050565b60008060408385031215611986576119856114e5565b5b60006119948582860161195a565b92505060206119a5858286016118d2565b9150509250929050565b6000602082840312156119c5576119c46114e5565b5b600082013567ffffffffffffffff8111156119e3576119e26114ea565b5b6119ef84828501611880565b91505092915050565b600060208284031215611a0e57611a0d6114e5565b5b6000611a1c8482850161195a565b91505092915050565b6000602082019050611a3a600083018461162d565b92915050565b60038110611a5157611a5061163c565b5b50565b6000819050611a6282611a40565b919050565b6000611a7282611a54565b9050919050565b611a8281611a67565b82525050565b6000602082019050611a9d6000830184611a79565b92915050565b600081519050919050565b600082825260208201905092915050565b6000819050602082019050919050565b600082825260208201905092915050565b6000611aeb82611552565b611af58185611acf565b9350611b0581856020860161156e565b611b0e81611598565b840191505092915050565b611b228161161b565b82525050565b611b31816115e2565b82525050565b60006060830160008301518482036000860152611b548282611ae0565b9150506020830151611b696020860182611b19565b506040830151611b7c6040860182611b28565b508091505092915050565b6000611b938383611b37565b905092915050565b6000602082019050919050565b6000611bb382611aa3565b611bbd8185611aae565b935083602082028501611bcf85611abf565b8060005b85811015611c0b5784840389528151611bec8582611b87565b9450611bf783611b9b565b925060208a01995050600181019050611bd3565b50829750879550505050505092915050565b60006020820190508181036000830152611c378184611ba8565b905092915050565b611c48816115e2565b8114611c5357600080fd5b50565b600081359050611c6581611c3f565b92915050565b60008060408385031215611c8257611c816114e5565b5b6000611c9085828601611510565b9250506020611ca185828601611c56565b9150509250929050565b60006060820190508181036000830152611cc581866115a9565b9050611cd4602083018561162d565b611ce160408301846115ec565b949350505050565b60008060408385031215611d0057611cff6114e5565b5b600083013567ffffffffffffffff811115611d1e57611d1d6114ea565b5b611d2a85828601611880565b9250506020611d3b85828601611c56565b9150509250929050565b7f4e487b7100000000000000000000000000000000000000000000000000000000600052602260045260246000fd5b60006002820490506001821680611d8c57607f821691505b602082108103611d9f57611d9e611d45565b5b50919050565b7f496e76616c696420737461747573000000000000000000000000000000000000600082015250565b6000611ddb600e8361155d565b9150611de682611da5565b602082019050919050565b60006020820190508181036000830152611e0a81611dce565b9050919050565b600081905092915050565b6000611e2782611552565b611e318185611e11565b9350611e4181856020860161156e565b80840191505092915050565b6000611e598284611e1c565b915081905092915050565b7f436172676f206e6f7420666f756e640000000000000000000000000000000000600082015250565b6000611e9a600f8361155d565b9150611ea582611e64565b602082019050919050565b60006020820190508181036000830152611ec981611e8d565b9050919050565b7f4e6f7420617574686f72697a656420746f206c6f636b00000000000000000000600082015250565b6000611f0660168361155d565b9150611f1182611ed0565b602082019050919050565b60006020820190508181036000830152611f3581611ef9565b9050919050565b7f4e6f7420617574686f72697a656420746f207570646174650000000000000000600082015250565b6000611f7260188361155d565b9150611f7d82611f3c565b602082019050919050565b60006020820190508181036000830152611fa181611f65565b9050919050565b60008190508160005260206000209050919050565b60006020601f8301049050919050565b600082821b905092915050565b60006008830261200a7fffffffffffffffffffffffffffffffffffffffffffffffffffffffffffffffff82611fcd565b6120148683611fcd565b95508019841693508086168417925050509392505050565b600061204761204261203d846115e2565b6116ff565b6115e2565b9050919050565b6000819050919050565b6120618361202c565b61207561206d8261204e565b848454611fda565b825550505050565b600090565b61208a61207d565b612095818484612058565b505050565b5b818110156120b9576120ae600082612082565b60018101905061209b565b5050565b601f8211156120fe576120cf81611fa8565b6120d884611fbd565b810160208510156120e7578190505b6120fb6120f385611fbd565b83018261209a565b50505b505050565b600082821c905092915050565b600061212160001984600802612103565b1980831691505092915050565b600061213a8383612110565b9150826002028217905092915050565b61215382611552565b67ffffffffffffffff81111561216c5761216b611783565b5b6121768254611d74565b6121818282856120bd565b600060209050601f8311600181146121b457600084156121a2578287015190505b6121ac858261212e565b865550612214565b601f1984166121c286611fa8565b60005b828110156121ea578489015182556001820191506020850194506020810190506121c5565b868310156122075784890151612203601f891682612110565b8355505b6001600288020188555050505b505050505050565b7f4e6f74206f776e65720000000000000000000000000000000000000000000000600082015250565b600061225260098361155d565b915061225d8261221c565b602082019050919050565b6000602082019050818103600083015261228181612245565b9050919050565b7f496e76616c696420726f6c650000000000000000000000000000000000000000600082015250565b60006122be600c8361155d565b91506122c982612288565b602082019050919050565b600060208201905081810360008301526122ed816122b1565b9050919050565b7f4163636573732064656e69656400000000000000000000000000000000000000600082015250565b600061232a600d8361155d565b9150612335826122f4565b602082019050919050565b600060208201905081810360008301526123598161231d565b9050919050565b6000604082019050612375600083018561162d565b61238260208301846115ec565b9392505050565b60008115159050919050565b61239e81612389565b81146123a957600080fd5b50565b6000815190506123bb81612395565b92915050565b60006123d46123cf846117fe565b6117e3565b9050828152602081018484840111156123f0576123ef61177e565b5b6123fb84828561156e565b509392505050565b600082601f83011261241857612417611779565b5b81516124288482602086016123c1565b91505092915050565b60008060408385031215612448576124476114e5565b5b6000612456858286016123ac565b925050602083015167ffffffffffffffff811115612477576124766114ea565b5b61248385828601612403565b9150509250929050565b600060208201905081810360008301526124a781846115a9565b90509291505056fea2646970667358221220ee8cbb55a201d5f905cbdee93aba475a02d2c71fc17ee0bef339698634cce74f64736f6c63430008140033",
  "linkReferences": {},
  "deployedLinkReferences": {}
}